:080000000C9444000C94000074
:100008000C9400000C9400000C9400000C94000068
:100018000C9400000C9400000C9400000C94000058
:100028000C9400000C9400000C9400000C94000048
:100038000C9400000C9400000C9400000C94000038
:100048000C9400000C9400000C9400001027E803A6
:1000580064000A00010000100001100001003100D6
:10006800340037002A0032003500380030003300F1
:1000780036003900230080C0020060027E000000C4
:10008800F894EE27ECBBF1E0FBBFEBBFE5BF8DE0DA
:10009800A2E0BB27ED938A95E9F780E098E0A0E617
:1000A800ED930197E9F7E0E8F0E0859195910097E5
:1000B80061F0A591B59105901590BF01F0010590EB
:1000C8000D920197E1F7FB01F0CFEFE5EDBFE8E016
:1000D800EEBFC0E6D2E00C94710010E02CE231E0F3
:1000E800E0EFE4BBA0E1D5D0EFEEE5BB989907C0FF
:1000F8001A93A0E090D0A6E6B0E0F6D0989A999925
:1001080007C01A93A0E087D0A8E6B0E0EDD0999A8E
:100118009A9907C01A93A0E07ED0AAE6B0E0E4D08E
:100128009A9A9B9907C01A93A0E075D0ACE6B0E004
:10013800DBD09B9AEFEDE5BB989907C01A93A0E036
:100148006AD0AEE6B0E0D0D0989A999907C01A93D1
:10015800A0E061D0A0E7B0E0C7D0999A9A9907C00B
:100168001A93A0E058D0A2E7B0E0BED09A9A9B9923
:1001780007C01A93A0E04FD0A4E7B0E0B5D09B9A8F
:10018800EFEBE5BB989907C01A93A0E044D0A6E727
:10019800B0E0AAD0989A999907C01A93A0E03BD0EA
:1001A800A8E7B0E0A1D0999A9A9907C01A93A0E05D
:1001B80032D0AAE7B0E098D09A9A9B9907C01A93D0
:1001C800A0E029D0ACE7B0E08FD09B9A8DCFFFCFCD
:1001D8001A931A2FEBB3EF70AE2FE12FE07FEA2BC3
:1001E800EBBB8BE18A95F1F7DA9A8BE18A95F1F707
:1001F800DA988BE18A95F1F775C0AA93A881E8DFB0
:10020800E881E295E883A881E3DF88EC90E0019734
:10021800F1F7219608951A930A931A2F0A81E12F6C
:10022800F0E0E05AFD4FE081E00FAE2FE6DF502E00
:10023800412E1981088123960895A2E05AD0ACE096
:10024800DCDFA1E056D0E0E04E2E5E2E08951A9332
:100258001A2F1A3011F0571438F0E0E0EA9343945B
:10026800A42DD9DF1A30F1F15394D89AA12FC5DF04
:10027800D89838C049D09D01F9012F5F3F4FE491CC
:100288001E2FE03019F0A12FE2DFF6CF42D02496DE
:1002980008951A931A2FEAB3E06FEABBD29AD09A5C
:1002A800D19ADA98D898D998712EE12FE058E0932E
:1002B8006202E12FE054E0936302A4E1B0E02ED0A3
:1002C8001CD01BD01AD0A0E283DF80E991E001970F
:1002D800F1F7A8E292DFA4E090DFA5E88EDFA6E0C0
:1002E8008CDFABDF19910895C5DFD90117D01F5FE7
:1002F800089583DFA3E0B0E011C0A0E369DF80E9DF
:1003080091E00197F1F708953A932A931A930A9383
:1003180008953B812A81198108810895109639F042
:10032800A89580EA9FE00197F1F71197C9F708951A
:00000001FF
